{
  "contractName": "carpool",
  "abi": [
    {
      "inputs": [
        {
          "internalType": "address",
          "name": "driver",
          "type": "address"
        },
        {
          "internalType": "string",
          "name": "places",
          "type": "string"
        },
        {
          "internalType": "string",
          "name": "cartype",
          "type": "string"
        },
        {
          "internalType": "uint256",
          "name": "count",
          "type": "uint256"
        },
        {
          "internalType": "uint256",
          "name": "rideid",
          "type": "uint256"
        },
        {
          "internalType": "uint256",
          "name": "minAmount",
          "type": "uint256"
        },
        {
          "internalType": "string",
          "name": "from",
          "type": "string"
        },
        {
          "internalType": "string",
          "name": "to",
          "type": "string"
        },
        {
          "internalType": "string",
          "name": "_date",
          "type": "string"
        }
      ],
      "name": "createRide",
      "outputs": [],
      "stateMutability": "nonpayable",
      "type": "function"
    },
    {
      "inputs": [],
      "name": "viewRides",
      "outputs": [
        {
          "internalType": "address[]",
          "name": "",
          "type": "address[]"
        },
        {
          "internalType": "string[]",
          "name": "",
          "type": "string[]"
        },
        {
          "internalType": "string[]",
          "name": "",
          "type": "string[]"
        },
        {
          "internalType": "uint256[]",
          "name": "",
          "type": "uint256[]"
        },
        {
          "internalType": "uint256[]",
          "name": "",
          "type": "uint256[]"
        },
        {
          "internalType": "uint256[]",
          "name": "",
          "type": "uint256[]"
        },
        {
          "internalType": "string[]",
          "name": "",
          "type": "string[]"
        },
        {
          "internalType": "string[]",
          "name": "",
          "type": "string[]"
        },
        {
          "internalType": "string[]",
          "name": "",
          "type": "string[]"
        }
      ],
      "stateMutability": "view",
      "type": "function",
      "constant": true
    },
    {
      "inputs": [
        {
          "internalType": "uint256",
          "name": "tripid",
          "type": "uint256"
        },
        {
          "internalType": "address",
          "name": "bidder",
          "type": "address"
        },
        {
          "internalType": "string",
          "name": "place",
          "type": "string"
        },
        {
          "internalType": "uint256",
          "name": "bidamount",
          "type": "uint256"
        }
      ],
      "name": "bidRide",
      "outputs": [],
      "stateMutability": "nonpayable",
      "type": "function"
    },
    {
      "inputs": [],
      "name": "viewBids",
      "outputs": [
        {
          "internalType": "uint256[]",
          "name": "",
          "type": "uint256[]"
        },
        {
          "internalType": "address[]",
          "name": "",
          "type": "address[]"
        },
        {
          "internalType": "string[]",
          "name": "",
          "type": "string[]"
        },
        {
          "internalType": "uint256[]",
          "name": "",
          "type": "uint256[]"
        },
        {
          "internalType": "bool[]",
          "name": "",
          "type": "bool[]"
        }
      ],
      "stateMutability": "view",
      "type": "function",
      "constant": true
    },
    {
      "inputs": [
        {
          "internalType": "uint256",
          "name": "tripid",
          "type": "uint256"
        },
        {
          "internalType": "address",
          "name": "bidder",
          "type": "address"
        }
      ],
      "name": "acceptBid",
      "outputs": [],
      "stateMutability": "nonpayable",
      "type": "function"
    }
  ],
  "bytecode": "0x608060405234801561001057600080fd5b5061191f806100206000396000f3fe608060405234801561001057600080fd5b50600436106100575760003560e01c8063020686641461005c578063a683036014610078578063d4e309ea14610094578063f052d358146100b6578063f2a0d33b146100dc575b600080fd5b61007660048036038101906100719190610f89565b6100f8565b005b610092600480360381019061008d919061110f565b61027a565b005b61009c61048f565b6040516100ad9594939291906115f5565b60405180910390f35b6100be610728565b6040516100d39998979695949392919061166b565b60405180910390f35b6100f660048036038101906100f19190611737565b610d02565b005b60005b6009805490508110156101f657826009828154811061011d5761011c6117ba565b5b906000526020600020015414801561019e57508173ffffffffffffffffffffffffffffffffffffffff16600a828154811061015b5761015a6117ba565b5b9060005260206000200160009054906101000a900473ffffffffffffffffffffffffffffffffffffffff1673ffffffffffffffffffffffffffffffffffffffff16145b156101e3576001600d82815481106101b9576101b86117ba565b5b90600052602060002090602091828204019190066101000a81548160ff0219169083151502179055505b80806101ee90611818565b9150506100fb565b600090505b60038054905081101561027557826003828154811061021d5761021c6117ba565b5b9060005260206000200154036102625760028181548110610241576102406117ba565b5b90600052602060002001600081548092919061025c90611860565b91905055505b808061026d90611818565b9150506101fb565b505050565b6007889080600181540180825580915050600190039060005260206000200160009091909190915090805190602001906102b5929190610e3e565b506000899080600181540180825580915050600190039060005260206000200160009091909190916101000a81548173ffffffffffffffffffffffffffffffffffffffff021916908373ffffffffffffffffffffffffffffffffffffffff160217905550600187908060018154018082558091505060019003906000526020600020016000909190919091509080519060200190610354929190610e3e565b5060028690806001815401808255809150506001900390600052602060002001600090919091909150556003859080600181540180825580915050600190039060005260206000200160009091909190915055600484908060018154018082558091505060019003906000526020600020016000909190919091505560058390806001815401808255809150506001900390600052602060002001600090919091909150908051906020019061040b929190610e3e565b50600682908060018154018082558091505060019003906000526020600020016000909190919091509080519060200190610447929190610e3e565b50600881908060018154018082558091505060019003906000526020600020016000909190919091509080519060200190610483929190610e3e565b50505050505050505050565b60608060608060606009600a600b600c600d848054806020026020016040519081016040528092919081815260200182805480156104ec57602002820191906000526020600020905b8154815260200190600101908083116104d8575b505050505094508380548060200260200160405190810160405280929190818152602001828054801561057457602002820191906000526020600020905b8160009054906101000a900473ffffffffffffffffffffffffffffffffffffffff1673ffffffffffffffffffffffffffffffffffffffff168152602001906001019080831161052a575b5050505050935082805480602002602001604051908101604052809291908181526020016000905b828210156106485783829060005260206000200180546105bb906118b8565b80601f01602080910402602001604051908101604052809291908181526020018280546105e7906118b8565b80156106345780601f1061060957610100808354040283529160200191610634565b820191906000526020600020905b81548152906001019060200180831161061757829003601f168201915b50505050508152602001906001019061059c565b5050505092508180548060200260200160405190810160405280929190818152602001828054801561069957602002820191906000526020600020905b815481526020019060010190808311610685575b505050505091508080548060200260200160405190810160405280929190818152602001828054801561071057602002820191906000526020600020906000905b82829054906101000a900460ff161515815260200190600101906020826000010492830192600103820291508084116106da5790505b50505050509050945094509450945094509091929394565b6060806060806060806060806060600060076001600260036004600560066008888054806020026020016040519081016040528092919081815260200182805480156107c957602002820191906000526020600020905b8160009054906101000a900473ffffffffffffffffffffffffffffffffffffffff1673ffffffffffffffffffffffffffffffffffffffff168152602001906001019080831161077f575b5050505050985087805480602002602001604051908101604052809291908181526020016000905b8282101561089d578382906000526020600020018054610810906118b8565b80601f016020809104026020016040519081016040528092919081815260200182805461083c906118b8565b80156108895780601f1061085e57610100808354040283529160200191610889565b820191906000526020600020905b81548152906001019060200180831161086c57829003601f168201915b5050505050815260200190600101906107f1565b50505050975086805480602002602001604051908101604052809291908181526020016000905b828210156109705783829060005260206000200180546108e3906118b8565b80601f016020809104026020016040519081016040528092919081815260200182805461090f906118b8565b801561095c5780601f106109315761010080835404028352916020019161095c565b820191906000526020600020905b81548152906001019060200180831161093f57829003601f168201915b5050505050815260200190600101906108c4565b505050509650858054806020026020016040519081016040528092919081815260200182805480156109c157602002820191906000526020600020905b8154815260200190600101908083116109ad575b5050505050955084805480602002602001604051908101604052809291908181526020018280548015610a1357602002820191906000526020600020905b8154815260200190600101908083116109ff575b5050505050945083805480602002602001604051908101604052809291908181526020018280548015610a6557602002820191906000526020600020905b815481526020019060010190808311610a51575b5050505050935082805480602002602001604051908101604052809291908181526020016000905b82821015610b39578382906000526020600020018054610aac906118b8565b80601f0160208091040260200160405190810160405280929190818152602001828054610ad8906118b8565b8015610b255780601f10610afa57610100808354040283529160200191610b25565b820191906000526020600020905b815481529060010190602001808311610b0857829003601f168201915b505050505081526020019060010190610a8d565b50505050925081805480602002602001604051908101604052809291908181526020016000905b82821015610c0c578382906000526020600020018054610b7f906118b8565b80601f0160208091040260200160405190810160405280929190818152602001828054610bab906118b8565b8015610bf85780601f10610bcd57610100808354040283529160200191610bf8565b820191906000526020600020905b815481529060010190602001808311610bdb57829003601f168201915b505050505081526020019060010190610b60565b50505050915080805480602002602001604051908101604052809291908181526020016000905b82821015610cdf578382906000526020600020018054610c52906118b8565b80601f0160208091040260200160405190810160405280929190818152602001828054610c7e906118b8565b8015610ccb5780601f10610ca057610100808354040283529160200191610ccb565b820191906000526020600020905b815481529060010190602001808311610cae57829003601f168201915b505050505081526020019060010190610c33565b505050509050985098509850985098509850985098509850909192939495969798565b6009849080600181540180825580915050600190039060005260206000200160009091909190915055600a839080600181540180825580915050600190039060005260206000200160009091909190916101000a81548173ffffffffffffffffffffffffffffffffffffffff021916908373ffffffffffffffffffffffffffffffffffffffff160217905550600b82908060018154018082558091505060019003906000526020600020016000909190919091509080519060200190610dc9929190610e3e565b50600c819080600181540180825580915050600190039060005260206000200160009091909190915055600d600090806001815401808255809150506001900390600052602060002090602091828204019190069091909190916101000a81548160ff02191690831515021790555050505050565b828054610e4a906118b8565b90600052602060002090601f016020900481019282610e6c5760008555610eb3565b82601f10610e8557805160ff1916838001178555610eb3565b82800160010185558215610eb3579182015b82811115610eb2578251825591602001919060010190610e97565b5b509050610ec09190610ec4565b5090565b5b80821115610edd576000816000905550600101610ec5565b5090565b6000604051905090565b600080fd5b600080fd5b6000819050919050565b610f0881610ef5565b8114610f1357600080fd5b50565b600081359050610f2581610eff565b92915050565b600073ffffffffffffffffffffffffffffffffffffffff82169050919050565b6000610f5682610f2b565b9050919050565b610f6681610f4b565b8114610f7157600080fd5b50565b600081359050610f8381610f5d565b92915050565b60008060408385031215610fa057610f9f610eeb565b5b6000610fae85828601610f16565b9250506020610fbf85828601610f74565b9150509250929050565b600080fd5b600080fd5b6000601f19601f8301169050919050565b7f4e487b7100000000000000000000000000000000000000000000000000000000600052604160045260246000fd5b61101c82610fd3565b810181811067ffffffffffffffff8211171561103b5761103a610fe4565b5b80604052505050565b600061104e610ee1565b905061105a8282611013565b919050565b600067ffffffffffffffff82111561107a57611079610fe4565b5b61108382610fd3565b9050602081019050919050565b82818337600083830152505050565b60006110b26110ad8461105f565b611044565b9050828152602081018484840111156110ce576110cd610fce565b5b6110d9848285611090565b509392505050565b600082601f8301126110f6576110f5610fc9565b5b813561110684826020860161109f565b91505092915050565b60008060008060008060008060006101208a8c03121561113257611131610eeb565b5b60006111408c828d01610f74565b99505060208a013567ffffffffffffffff81111561116157611160610ef0565b5b61116d8c828d016110e1565b98505060408a013567ffffffffffffffff81111561118e5761118d610ef0565b5b61119a8c828d016110e1565b97505060606111ab8c828d01610f16565b96505060806111bc8c828d01610f16565b95505060a06111cd8c828d01610f16565b94505060c08a013567ffffffffffffffff8111156111ee576111ed610ef0565b5b6111fa8c828d016110e1565b93505060e08a013567ffffffffffffffff81111561121b5761121a610ef0565b5b6112278c828d016110e1565b9250506101008a013567ffffffffffffffff81111561124957611248610ef0565b5b6112558c828d016110e1565b9150509295985092959850929598565b600081519050919050565b600082825260208201905092915050565b6000819050602082019050919050565b61129a81610ef5565b82525050565b60006112ac8383611291565b60208301905092915050565b6000602082019050919050565b60006112d082611265565b6112da8185611270565b93506112e583611281565b8060005b838110156113165781516112fd88826112a0565b9750611308836112b8565b9250506001810190506112e9565b5085935050505092915050565b600081519050919050565b600082825260208201905092915050565b6000819050602082019050919050565b61135881610f4b565b82525050565b600061136a838361134f565b60208301905092915050565b6000602082019050919050565b600061138e82611323565b611398818561132e565b93506113a38361133f565b8060005b838110156113d45781516113bb888261135e565b97506113c683611376565b9250506001810190506113a7565b5085935050505092915050565b600081519050919050565b600082825260208201905092915050565b6000819050602082019050919050565b600081519050919050565b600082825260208201905092915050565b60005b8381101561144757808201518184015260208101905061142c565b83811115611456576000848401525b50505050565b60006114678261140d565b6114718185611418565b9350611481818560208601611429565b61148a81610fd3565b840191505092915050565b60006114a1838361145c565b905092915050565b6000602082019050919050565b60006114c1826113e1565b6114cb81856113ec565b9350836020820285016114dd856113fd565b8060005b8581101561151957848403895281516114fa8582611495565b9450611505836114a9565b925060208a019950506001810190506114e1565b50829750879550505050505092915050565b600081519050919050565b600082825260208201905092915050565b6000819050602082019050919050565b60008115159050919050565b61156c81611557565b82525050565b600061157e8383611563565b60208301905092915050565b6000602082019050919050565b60006115a28261152b565b6115ac8185611536565b93506115b783611547565b8060005b838110156115e85781516115cf8882611572565b97506115da8361158a565b9250506001810190506115bb565b5085935050505092915050565b600060a082019050818103600083015261160f81886112c5565b905081810360208301526116238187611383565b9050818103604083015261163781866114b6565b9050818103606083015261164b81856112c5565b9050818103608083015261165f8184611597565b90509695505050505050565b6000610120820190508181036000830152611686818c611383565b9050818103602083015261169a818b6114b6565b905081810360408301526116ae818a6114b6565b905081810360608301526116c281896112c5565b905081810360808301526116d681886112c5565b905081810360a08301526116ea81876112c5565b905081810360c08301526116fe81866114b6565b905081810360e083015261171281856114b6565b905081810361010083015261172781846114b6565b90509a9950505050505050505050565b6000806000806080858703121561175157611750610eeb565b5b600061175f87828801610f16565b945050602061177087828801610f74565b935050604085013567ffffffffffffffff81111561179157611790610ef0565b5b61179d878288016110e1565b92505060606117ae87828801610f16565b91505092959194509250565b7f4e487b7100000000000000000000000000000000000000000000000000000000600052603260045260246000fd5b7f4e487b7100000000000000000000000000000000000000000000000000000000600052601160045260246000fd5b600061182382610ef5565b91507fffffffffffffffffffffffffffffffffffffffffffffffffffffffffffffffff8203611855576118546117e9565b5b600182019050919050565b600061186b82610ef5565b91506000820361187e5761187d6117e9565b5b600182039050919050565b7f4e487b7100000000000000000000000000000000000000000000000000000000600052602260045260246000fd5b600060028204905060018216806118d057607f821691505b6020821081036118e3576118e2611889565b5b5091905056fea26469706673582212207f5aa5b91fcaf83049fddf6bfc92e410cc1c2275c3a2bb6400c47de561e3eb0d64736f6c634300080d0033",
  "immutableReferences": {},
  "source": "// SPDX-License-Identifier: MIT\npragma solidity >=0.4.22 <0.9.0;\n\ncontract carpool {\n  \n  // state variables\n  address[] _drivers;\n  string[] _cartype;\n  uint[] _counts;\n  uint[] _rideid;\n  uint[] _minAmount;\n  string[] _from;\n  string[] _to;\n  string[] _places;\n  string[] _dates;\n\n  uint[] _tripids;\n  address[] _bidders;\n  string[] _bidplaces;\n  uint[] _bidamounts;\n  bool[] _bidstatus;\n\n  function createRide(address driver,string memory places,string memory cartype,uint count,uint rideid,uint minAmount,string memory from, string memory to,string memory _date) public  {\n\n    _places.push(places);\n    _drivers.push(driver);\n    _cartype.push(cartype);\n    _counts.push(count);\n    _rideid.push(rideid);\n    _minAmount.push(minAmount);\n    _from.push(from);\n    _to.push(to);\n    _dates.push(_date);\n\n  }\n\n  function viewRides() public view returns (address[] memory, string[] memory,string[] memory,uint[] memory,uint[] memory,uint[] memory,string[] memory,string[] memory,string[] memory) {\n    return (_drivers,_places,_cartype,_counts,_rideid,_minAmount,_from,_to,_dates);\n  }\n\n  function bidRide(uint tripid, address bidder, string memory place, uint bidamount) public {\n\n    _tripids.push(tripid);\n    _bidders.push(bidder);\n    _bidplaces.push(place);\n    _bidamounts.push(bidamount);\n    _bidstatus.push(false);\n  }\n\n  function viewBids() public view returns(uint[] memory,address[] memory, string[] memory, uint[] memory,bool[] memory) {\n    return (_tripids,_bidders,_bidplaces,_bidamounts,_bidstatus);\n  }\n\n  function acceptBid(uint tripid, address bidder) public {\n\n    uint i;\n    for(i=0;i<_tripids.length;i++) {\n      if(_tripids[i]==tripid && _bidders[i]==bidder) {\n        _bidstatus[i]=true;\n      }\n    }\n    for(i=0;i<_rideid.length;i++) {\n      if(_rideid[i]==tripid) {\n        _counts[i]--;\n      }\n    }\n  }\n}\n",
  "sourcePath": "C:\\Users\\Madhu\\Desktop\\car-pooling-blockchain\\contracts\\carpool.sol",
  "compiler": {
    "name": "solc",
    "version": "0.8.13+commit.abaa5c0e.Emscripten.clang"
  },
  "schemaVersion": "3.4.7",
  "updatedAt": "2022-05-21T17:14:11.109Z",
  "networkType": "ethereum",
  "devdoc": {
    "kind": "dev",
    "methods": {},
    "version": 1
  },
  "userdoc": {
    "kind": "user",
    "methods": {},
    "version": 1
  }
}