{
  "contractName": "register",
  "abi": [
    {
      "inputs": [
        {
          "internalType": "address",
          "name": "username",
          "type": "address"
        },
        {
          "internalType": "string",
          "name": "name",
          "type": "string"
        },
        {
          "internalType": "string",
          "name": "email",
          "type": "string"
        },
        {
          "internalType": "string",
          "name": "mobile",
          "type": "string"
        },
        {
          "internalType": "string",
          "name": "password",
          "type": "string"
        }
      ],
      "name": "registerUser",
      "outputs": [],
      "stateMutability": "nonpayable",
      "type": "function"
    },
    {
      "inputs": [],
      "name": "viewUsers",
      "outputs": [
        {
          "internalType": "address[]",
          "name": "",
          "type": "address[]"
        },
        {
          "internalType": "string[]",
          "name": "",
          "type": "string[]"
        },
        {
          "internalType": "string[]",
          "name": "",
          "type": "string[]"
        },
        {
          "internalType": "string[]",
          "name": "",
          "type": "string[]"
        },
        {
          "internalType": "string[]",
          "name": "",
          "type": "string[]"
        }
      ],
      "stateMutability": "view",
      "type": "function",
      "constant": true
    },
    {
      "inputs": [
        {
          "internalType": "address",
          "name": "username",
          "type": "address"
        },
        {
          "internalType": "string",
          "name": "password",
          "type": "string"
        }
      ],
      "name": "loginUser",
      "outputs": [
        {
          "internalType": "bool",
          "name": "",
          "type": "bool"
        }
      ],
      "stateMutability": "view",
      "type": "function",
      "constant": true
    }
  ],
  "bytecode": "0x608060405234801561001057600080fd5b506110a7806100206000396000f3fe608060405234801561001057600080fd5b50600436106100415760003560e01c806303bdb46b1461004657806314ebdb7914610076578063999eab2b14610098575b600080fd5b610060600480360381019061005b9190610b66565b6100b4565b60405161006d9190610bdd565b60405180910390f35b61007e61021c565b60405161008f959493929190610e00565b60405180910390f35b6100b260048036038101906100ad9190610e76565b610613565b005b600080600090505b60008054905081101561021057600081815481106100dd576100dc610f61565b5b9060005260206000200160009054906101000a900473ffffffffffffffffffffffffffffffffffffffff1673ffffffffffffffffffffffffffffffffffffffff168473ffffffffffffffffffffffffffffffffffffffff161480156101ee57506101ed836004838154811061015557610154610f61565b5b90600052602060002001805461016a90610fbf565b80601f016020809104026020016040519081016040528092919081815260200182805461019690610fbf565b80156101e35780601f106101b8576101008083540402835291602001916101e3565b820191906000526020600020905b8154815290600101906020018083116101c657829003601f168201915b505050505061076d565b5b156101fd576001915050610216565b808061020890611029565b9150506100bc565b60009150505b92915050565b606080606080606060006001600260036004848054806020026020016040519081016040528092919081815260200182805480156102af57602002820191906000526020600020905b8160009054906101000a900473ffffffffffffffffffffffffffffffffffffffff1673ffffffffffffffffffffffffffffffffffffffff1681526020019060010190808311610265575b5050505050945083805480602002602001604051908101604052809291908181526020016000905b828210156103835783829060005260206000200180546102f690610fbf565b80601f016020809104026020016040519081016040528092919081815260200182805461032290610fbf565b801561036f5780601f106103445761010080835404028352916020019161036f565b820191906000526020600020905b81548152906001019060200180831161035257829003601f168201915b5050505050815260200190600101906102d7565b50505050935082805480602002602001604051908101604052809291908181526020016000905b828210156104565783829060005260206000200180546103c990610fbf565b80601f01602080910402602001604051908101604052809291908181526020018280546103f590610fbf565b80156104425780601f1061041757610100808354040283529160200191610442565b820191906000526020600020905b81548152906001019060200180831161042557829003601f168201915b5050505050815260200190600101906103aa565b50505050925081805480602002602001604051908101604052809291908181526020016000905b8282101561052957838290600052602060002001805461049c90610fbf565b80601f01602080910402602001604051908101604052809291908181526020018280546104c890610fbf565b80156105155780601f106104ea57610100808354040283529160200191610515565b820191906000526020600020905b8154815290600101906020018083116104f857829003601f168201915b50505050508152602001906001019061047d565b50505050915080805480602002602001604051908101604052809291908181526020016000905b828210156105fc57838290600052602060002001805461056f90610fbf565b80601f016020809104026020016040519081016040528092919081815260200182805461059b90610fbf565b80156105e85780601f106105bd576101008083540402835291602001916105e8565b820191906000526020600020905b8154815290600101906020018083116105cb57829003601f168201915b505050505081526020019060010190610550565b505050509050945094509450945094509091929394565b6000859080600181540180825580915050600190039060005260206000200160009091909190916101000a81548173ffffffffffffffffffffffffffffffffffffffff021916908373ffffffffffffffffffffffffffffffffffffffff1602179055506001849080600181540180825580915050600190039060005260206000200160009091909190915090805190602001906106b192919061090b565b506002839080600181540180825580915050600190039060005260206000200160009091909190915090805190602001906106ed92919061090b565b5060038290806001815401808255809150506001900390600052602060002001600090919091909150908051906020019061072992919061090b565b5060048190806001815401808255809150506001900390600052602060002001600090919091909150908051906020019061076592919061090b565b505050505050565b6000808390506000839050600082519050808251101561078c57815190505b60005b818110156108d0578281815181106107aa576107a9610f61565b5b602001015160f81c60f81b7effffffffffffffffffffffffffffffffffffffffffffffffffffffffffffff19168482815181106107ea576107e9610f61565b5b602001015160f81c60f81b7effffffffffffffffffffffffffffffffffffffffffffffffffffffffffffff1916101561082a576000945050505050610905565b82818151811061083d5761083c610f61565b5b602001015160f81c60f81b7effffffffffffffffffffffffffffffffffffffffffffffffffffffffffffff191684828151811061087d5761087c610f61565b5b602001015160f81c60f81b7effffffffffffffffffffffffffffffffffffffffffffffffffffffffffffff191611156108bd576000945050505050610905565b80806108c890611029565b91505061078f565b508151835110156108e75760009350505050610905565b8151835111156108fd5760009350505050610905565b600193505050505b92915050565b82805461091790610fbf565b90600052602060002090601f0160209004810192826109395760008555610980565b82601f1061095257805160ff1916838001178555610980565b82800160010185558215610980579182015b8281111561097f578251825591602001919060010190610964565b5b50905061098d9190610991565b5090565b5b808211156109aa576000816000905550600101610992565b5090565b6000604051905090565b600080fd5b600080fd5b600073ffffffffffffffffffffffffffffffffffffffff82169050919050565b60006109ed826109c2565b9050919050565b6109fd816109e2565b8114610a0857600080fd5b50565b600081359050610a1a816109f4565b92915050565b600080fd5b600080fd5b6000601f19601f8301169050919050565b7f4e487b7100000000000000000000000000000000000000000000000000000000600052604160045260246000fd5b610a7382610a2a565b810181811067ffffffffffffffff82111715610a9257610a91610a3b565b5b80604052505050565b6000610aa56109ae565b9050610ab18282610a6a565b919050565b600067ffffffffffffffff821115610ad157610ad0610a3b565b5b610ada82610a2a565b9050602081019050919050565b82818337600083830152505050565b6000610b09610b0484610ab6565b610a9b565b905082815260208101848484011115610b2557610b24610a25565b5b610b30848285610ae7565b509392505050565b600082601f830112610b4d57610b4c610a20565b5b8135610b5d848260208601610af6565b91505092915050565b60008060408385031215610b7d57610b7c6109b8565b5b6000610b8b85828601610a0b565b925050602083013567ffffffffffffffff811115610bac57610bab6109bd565b5b610bb885828601610b38565b9150509250929050565b60008115159050919050565b610bd781610bc2565b82525050565b6000602082019050610bf26000830184610bce565b92915050565b600081519050919050565b600082825260208201905092915050565b6000819050602082019050919050565b610c2d816109e2565b82525050565b6000610c3f8383610c24565b60208301905092915050565b6000602082019050919050565b6000610c6382610bf8565b610c6d8185610c03565b9350610c7883610c14565b8060005b83811015610ca9578151610c908882610c33565b9750610c9b83610c4b565b925050600181019050610c7c565b5085935050505092915050565b600081519050919050565b600082825260208201905092915050565b6000819050602082019050919050565b600081519050919050565b600082825260208201905092915050565b60005b83811015610d1c578082015181840152602081019050610d01565b83811115610d2b576000848401525b50505050565b6000610d3c82610ce2565b610d468185610ced565b9350610d56818560208601610cfe565b610d5f81610a2a565b840191505092915050565b6000610d768383610d31565b905092915050565b6000602082019050919050565b6000610d9682610cb6565b610da08185610cc1565b935083602082028501610db285610cd2565b8060005b85811015610dee5784840389528151610dcf8582610d6a565b9450610dda83610d7e565b925060208a01995050600181019050610db6565b50829750879550505050505092915050565b600060a0820190508181036000830152610e1a8188610c58565b90508181036020830152610e2e8187610d8b565b90508181036040830152610e428186610d8b565b90508181036060830152610e568185610d8b565b90508181036080830152610e6a8184610d8b565b90509695505050505050565b600080600080600060a08688031215610e9257610e916109b8565b5b6000610ea088828901610a0b565b955050602086013567ffffffffffffffff811115610ec157610ec06109bd565b5b610ecd88828901610b38565b945050604086013567ffffffffffffffff811115610eee57610eed6109bd565b5b610efa88828901610b38565b935050606086013567ffffffffffffffff811115610f1b57610f1a6109bd565b5b610f2788828901610b38565b925050608086013567ffffffffffffffff811115610f4857610f476109bd565b5b610f5488828901610b38565b9150509295509295909350565b7f4e487b7100000000000000000000000000000000000000000000000000000000600052603260045260246000fd5b7f4e487b7100000000000000000000000000000000000000000000000000000000600052602260045260246000fd5b60006002820490506001821680610fd757607f821691505b602082108103610fea57610fe9610f90565b5b50919050565b7f4e487b7100000000000000000000000000000000000000000000000000000000600052601160045260246000fd5b6000819050919050565b60006110348261101f565b91507fffffffffffffffffffffffffffffffffffffffffffffffffffffffffffffffff820361106657611065610ff0565b5b60018201905091905056fea2646970667358221220e948c49935d190d9b426d7188708f1353e60d7f27a3dcccd0d71181da72a579764736f6c634300080d0033",
  "immutableReferences": {},
  "source": "// SPDX-License-Identifier: MIT\npragma solidity >=0.4.22 <0.9.0;\n\ncontract register {\n\n  // state variables\n  address[] _usernames;\n  string[] _names;\n  string[] _emails;\n  string[] _mobiles;\n  string[] _passwords;\n\n  function registerUser(address username,string memory name,string memory email, string memory mobile,string memory password) public {\n\n    _usernames.push(username);\n    _names.push(name);\n    _emails.push(email);\n    _mobiles.push(mobile);\n    _passwords.push(password);\n  }\n\n  function viewUsers() public view returns (address[] memory,string[] memory,string[] memory,string[] memory,string[] memory) {\n    return (_usernames,_names,_emails,_mobiles,_passwords);\n  }\n\n  function compare(string memory _a, string memory _b) private pure returns (bool) {\n        bytes memory a = bytes(_a);\n        bytes memory b = bytes(_b);\n        uint minLength = a.length;\n        if (b.length < minLength) minLength = b.length;\n        //@todo unroll the loop into increments of 32 and do full 32 byte comparisons\n        for (uint i = 0; i < minLength; i ++)\n            if (a[i] < b[i])\n                return false;\n            else if (a[i] > b[i])\n                return false;\n        if (a.length < b.length)\n            return false;\n        else if (a.length > b.length)\n            return false;\n        else\n            return true;\n    }\n\n  function loginUser(address username,string memory password) public view returns (bool) {\n    \n    uint i;\n\n    for(i=0;i<_usernames.length;i++) {\n    \n      if(username==_usernames[i] && (compare(password,_passwords[i]))){\n        return true;\n      }\n    }\n    return false;\n  }\n\n}\n",
  "sourcePath": "C:\\Users\\Madhu\\Desktop\\car-pooling-blockchain\\contracts\\register.sol",
  "compiler": {
    "name": "solc",
    "version": "0.8.13+commit.abaa5c0e.Emscripten.clang"
  },
  "schemaVersion": "3.4.7",
  "updatedAt": "2022-05-25T18:19:23.991Z",
  "networkType": "ethereum",
  "devdoc": {
    "kind": "dev",
    "methods": {},
    "version": 1
  },
  "userdoc": {
    "kind": "user",
    "methods": {},
    "version": 1
  }
}